:100000000C94A5010C94C2010C94C2010C94C20181
:100010000C94C2010C94C2010C94C2010C94C20154
:100020000C94C2010C94C2010C94C2010C94D8012E
:100030000C94C2010C94C2010C94C2010C94C20134
:100040000C94C2010C94C2010C94C2010C94C20124
:100050000C94C2010C94C2010C94C2010C94C20114
:100060000C94C2010C94C2016E616E00696E660050
:1000700000407A10F35A00A0724E18090010A5D45F
:10008000E80000E87648170000E40B54020000CABC
:100090009A3B000000E1F505000080969800000002
:1000A00040420F000000A086010000001027000061
:1000B0000000E803000000006400000000000A00E7
:1000C000000000000100000000002C76D888DC67EA
:1000D0004F0823DFC1DFAE59E1B1B796E5E3E45342
:1000E000C63AE651997696E8E6C28426EB898C9B5F
:1000F00062ED407C6FFCEFBC9C9F40F2BAA56FA5FF
:10010000F490055A2AF75C936B6CF9676DC11BFC80
:10011000E0E40D47FEF520E6B500D0ED902E03009B
:10012000943577050080841E080000204E0A0000E8
:1001300000C80C333333330F986E12831141EF8DA7
:100140002114893BE65516CFFEE6DB18D1844B38E7
:100150001BF77C1D901DA4BBE424203284725E2218
:100160008100C9F124ECA1E53D270000000000005A
:10017000005F00000007000700147F147F14242A8A
:100180007F2A122313086462364955225000050362
:100190000000001C2241000041221C0014083E08FF
:1001A0001408083E08080050300000080808080835
:1001B000006060000020100804023E5149453E00E6
:1001C000427F400042615149462141454B3118145C
:1001D000127F1027454545393C4A4949300171098C
:1001E00005033649494936064949291E0036360075
:1001F0000000563600000814224100141414141490
:1002000000412214080201510906324979413E7E1B
:100210001111117E7F494949363E414141227F41BA
:1002200041221C7F494949417F090909013E414951
:10023000497A7F0808087F00417F41002040413F04
:10024000017F081422417F404040407F020C027F22
:100250007F0408107F3E4141413E7F090909063E67
:100260004151215E7F091929464649494931010119
:100270007F01013F4040403F1F2040201F3F40384A
:10028000403F63140814630708700807615149452B
:1002900043007F41410002040810200041417F00DB
:1002A00004020102044040404040000102040020DA
:1002B000545454787F4844443838444444203844A3
:1002C00044487F3854545418087E0901020C525295
:1002D000523E7F0804047800447D40002040443DA5
:1002E000007F1028440000417F40007C04180478FF
:1002F0007C0804047838444444387C1414140808F6
:100300001414187C7C080404084854545420043FF6
:100310004440203C4040207C1C2040201C3C40307D
:10032000403C44281028440C5050503C4464544CE9
:1003300044000836410000007F00000041360800FC
:100340001008081008000000000011241FBECFEFA5
:10035000D8E0DEBFCDBF11E0A0E0B1E0EAEBF1E212
:1003600002C005900D92AA38B107D9F724E0AAE897
:10037000B1E001C01D92A230B207E1F70E94010C6A
:100380000C94DB100C940000E1E8F0E080818860C0
:10039000808388E09DE39093890080938800AFE696
:1003A000B0E08C9182608C93808185608083089519
:1003B0001F921FB61F9211248F939F938091C401A7
:1003C0009091C501181619062CF401979093C50158
:1003D0008093C4019F918F911F901FBE1F9018950D
:1003E0000E94C00E68E270E00E942F0C029690936B
:1003F0009101809390018AE290E090938F01809325
:100400008E0182E090E090930401809303010895AF
:100410000F931F93CF93DF930E94C401789483E0DE
:1004200090E09093C5018093C4010E940706C6E83E
:10043000D1E002E911E08091C4019091C501181644
:1004400019063CF0F894DF91CF911F910F910C9415
:10045000F6060E9407068091C5018F938091C40122
:100460008F93DF93CF931F930F930E94F70F6FE04B
:1004700085E20E94F10662E082E991E00E94E106D5
:100480000E94F6060F900F900F900F900F900F9014
:10049000D2CF0E94070660E085E00E94F10662E08C
:1004A0008FE091E00E94E10625E242E361E18EE106
:1004B0000E94000823E245E264E185E20E940B0706
:1004C0002BE14DE263E285E20E940B072CE14DE255
:1004D00065E185E20E940B0768E280E00E94F10678
:1004E00061E087E191E00E94E10668E280E30E941A
:1004F000F10661E08EE191E00E94E1068091010148
:1005000090910201019749F461E28AE00E94F106AC
:1005100061E085E291E00E94E10680910101909105
:100520000201029709F04EC02BE14CE266E185E240
:100530000E940B072BE14CE267E185E20E940B076A
:100540002BE14CE268E185E20E940B072BE14CE2D3
:1005500069E185E20E940B072BE14CE26AE185E24A
:100560000E940B072BE14CE26BE185E20E940B0736
:100570002BE14CE26CE185E20E940B072BE14CE29F
:100580006DE185E20E940B072BE14CE26EE185E212
:100590000E940B072BE14CE26FE185E20E940B0702
:1005A0002BE14CE260E285E20E940B072BE14CE27A
:1005B00061E285E20E940B072BE14CE262E285E2F8
:1005C0000E940B078091010190910201039749F469
:1005D00061E28AE30E94F10661E085E291E00E9417
:1005E000E1060C94F606499B32C0809100018823F5
:1005F000A9F080910101909102018330910509F4E5
:1006000087C001969093020180930101499983C0AC
:100610008FE99FE00197F1F700C0000080918B0106
:100620008823A9F080910101909102018230910507
:1006300009F478C0019690930201809301014999D1
:1006400074C08FE99FE00197F1F700C00000489B5C
:1006500032C0809100018823A9F08091010190911E
:1006600002018130910509F467C00197909302015E
:1006700080930101489963C08FE99FE00197F1F7EA
:1006800000C0000080918B018823A9F080910101B6
:10069000909102018130910509F458C0019790931F
:1006A000020180930101489954C08FE99FE00197AE
:1006B000F1F700C000004A9B2AC080910001882306
:1006C00069F080910101909102018130910509F05A
:1006D00047C081E080938D011092000180918B01D1
:1006E000882369F080910101909102018130910588
:1006F00009F063C081E08093000110928B014A9958
:1007000060C08FE99FE00197F1F700C000000895F5
:1007100081E090E077CF8FE99FE00197F1F700C08B
:10072000000074CF81E090E086CF8FE99FE00197D1
:10073000F1F700C0000083CF83E090E097CF8FE90E
:100740009FE00197F1F700C0000094CF82E090E0B5
:10075000A6CF8FE99FE00197F1F700C00000A3CF7B
:10076000029799F40E94080283E090E09093C501FB
:100770008093C4011092C3011092C20110928A01A9
:100780000E94F00181E080938C01809101019091A1
:100790000201039709F0A0CF0E9407066FE08AE0EC
:1007A0000E94F10661E087E291E00E94E1060E946A
:1007B000F60690E080E00E94DB10029709F09DCFE2
:1007C000EBCF8FE99FE00197F1F700C0000097CFD2
:1007D0000E94070660E080E00E94F10661E08BE382
:1007E00091E00E94E10664E180E00E94F10661E090
:1007F00083E591E00E94E10668E282E30E94F1064F
:1008000061E08EE691E00E94E10668E288E20E94E3
:10081000F10661E085E291E00E94E1060E94F606A1
:100820004A9B05C010928D0181E0809300014A9996
:1008300007C08FE99FE00197F1F700C0000008951D
:100840008FE99FE00197F1F700C00000F0CF0E9410
:1008500007066AE08FE00E94F10661E083E791E01D
:100860000E94E10669E18CE00E94F1068091C201DC
:100870009091C3012091C6013091C7012817390713
:1008800024F49093C7018093C6018091C7018F9390
:100890008091C6018F938DE791E09F938F9382EAB9
:1008A00091E09F938F930E94F70F61E082EA91E0BD
:1008B0000E94E10668E280E00E94F10661E08EE6B7
:1008C00091E00E94E10668E280E30E94F10661E0A7
:1008D0008EE191E00E94E1060F900F900F900F9033
:1008E0000F900F908091010190910201019749F4BE
:1008F00061E28AE00E94F10661E085E291E00E94F7
:10090000E1068091010190910201029749F461E2B0
:100910008AE30E94F10661E085E291E00E94E1062F
:100920000C94F606EF92FF920F931F93821B930B8A
:10093000601B710B4E0D5F1D889F9001899F300DCC
:10094000300D1124669FC001679F900D900D1124FA
:10095000280F391F449FB001459F700D700D112461
:1009600081E0621773070CF480E01F910F91FF90F4
:10097000EF900895489B14C08091090190910A015D
:10098000893091052CF0059790930A018093090115
:1009900048991DC08FE99FE00197F1F700C0000062
:1009A000499B14C08091090190910A0189349105F5
:1009B0002CF4059690930A018093090149990EC081
:1009C0008FE99FE00197F1F700C0000008958FE9DB
:1009D0009FE00197F1F700C00000DACF8FE99FE0B8
:1009E0000197F1F700C00000E9CF80918E0190914E
:1009F0008F018330910514F40C94F00101979093CA
:100A00008F0180938E0108950E94BA040E94F5041C
:100A10000E9407064091050150910601609107016F
:100A2000709108018091090190910A012091900133
:100A300030919101DC01A21BB30B20918E0130910A
:100A40008F01FB01E21BF30BAA9F9001AB9F300DBE
:100A5000300D1124EE9FD001EF9FB00DB00D112489
:100A60002A0F3B1FE0910301F0910401E40FF51FF1
:100A7000EE9FD001EF9FB00DB00D1124E1E0A21761
:100A8000B3070CF4E0E0E0938A01A217B3072CF05F
:100A900021E020938B0110928C010E94210840914B
:100AA000030160918E01809190010E942108809144
:100AB000C3018F938091C2018F9386E891E09F9349
:100AC0008F9382EB91E09F938F930E94F70F68E2E0
:100AD00080E00E94F10661E082EB91E00E94E10675
:100AE0000F900F900F900F900F900F900C94F606B0
:100AF000CF93DF9380918A01882319F0DF91CF9102
:100B00000895CAE0D0E00E9404052FEF80E792E04C
:100B1000215080409040E1F700C000000E94040591
:100B20002FEF80E792E0215080409040E1F700C035
:100B30000000219741F78091C2019091C301019675
:100B40009093C3018093C201D5CF29986623A9F061
:100B50002B9A27E030E090E0AC01022E02C05595C0
:100B600047950A94E2F740FF0AC02C9A2D9A2D98D7
:100B70002150310988F7299A08952B98EACF2C98AB
:100B8000F5CF60E00C94A505CF93DF93219A229ACC
:100B9000239A249A259A2A9A299A8FE39CE9019705
:100BA000F1F700C000002A989FEF2AE683E09150F9
:100BB00020408040E1F700C000002A9A299881E295
:100BC0000E94C10583E10E94C10586E00E94C10523
:100BD00082EC0E94C10580E20E94C10589E00E946A
:100BE000C10580E80E94C10580E40E94C105C8EFEC
:100BF000D1E061E080E00E94A5052197D1F788E06F
:100C00000E94C1058CE0DF91CF910C94C10580E872
:100C10000E94C10580E40E94C10510920004109258
:100C20000104E8E0F2E088EF91E0DF019C011D9211
:100C300021503040E1F70895811103C084E20C9403
:100C4000C10580E2FCCF962F969596959695E82F54
:100C5000F0E084E5989FE00DF11D1124E85FFD4F61
:100C60002081677081E090E001C0880F6A95EAF703
:100C7000442319F0282B2083089580952823FBCF47
:100C80008F929F92AF92BF92DF92EF92FF920F935B
:100C90001F93CF93DF9300D000D00F92CDB7DEB774
:100CA000E82FF62E80320CF44DC0E05285E0E802C9
:100CB000B001112466597E4F45E050E0CE01019607
:100CC0000E94A80F8E010F5F1F4F95E0F99E500103
:100CD000112487E0F89E40011124E12CEA141B0442
:100CE0000CF463C0809100048F5F9F2D990F990FC2
:100CF0009F0D890F80930004843558F08091010482
:100D0000109200048F5F97E0F99E800D112480936C
:100D1000010480910104803320F0109200041092AD
:100D200001040F900F900F900F900F90DF91CF91D3
:100D30001F910F91FF90EF90DF90BF90AF909F9029
:100D40008F900895EE0FFF0BE853FE4F0081118145
:100D50000115110509F0B9CF45E050E06AE671E0F0
:100D6000ADCFED0D5E0D8E2D6F2D0E94230CD801A1
:100D7000A80FB11D2C9130E08D2D0E94230C02C0D4
:100D8000359527958A95E2F741E020FF40E06E2FE8
:100D9000852F0E942306D394E09101045091000412
:100DA000D8141904F4F2E39499CFD12CF5CFE82F9D
:100DB000803234F4EE0FFF0BE853FE4F71836083F3
:100DC00008951F93CF93DF93162FEC018991811122
:100DD00004C0DF91CF911F910895612F0E944006BA
:100DE000F5CF80930004609301040895CF93DF93BF
:100DF00080E80E94C10580E40E94C105C8E0D2E0FD
:100E000061E089910E94A50584E0C030D807C1F750
:100E1000DF91CF9108954F925F926F927F928F9260
:100E20009F92AF92BF92CF92DF92EF92FF92CF93B9
:100E3000DF93CDB7DEB762970FB6F894DEBF0FBE73
:100E4000CDBF8D876987F22E481B550BCA01550F00
:100E5000AA0BBB0B89839A83AB83BC83BC01CD01F6
:100E60000E94A30D69837A838B839C83AF2D498570
:100E7000A41BBB0BCD01BB0FAA0BBB0B8D839E83A9
:100E8000AF83B887BC01CD010E94A30D6D837E8323
:100E90008F839887C980DA80EB80FC80E894F7F82C
:100EA0004B015C01E894B7F8A5019401C701B601B4
:100EB0000E94530E87FF02C075016401A7019601CD
:100EC00069817A818B819C810E94000D69837A837C
:100ED0008B839C834B015C01A70196016D817E8110
:100EE0008F8198850E94000D2B013C019D85892FE3
:100EF00090E0B0E0A0E089839A83AB83BC83BC011F
:100F0000CD010E94A10D69837A838B839C8399858F
:100F1000892F90E0B0E0A0E08D839E83AF83B887F7
:100F2000BC01CD010E94A10D6D837E838F839887C4
:100F3000A1E0B0E0BA8BA98B89899A89092E000CAF
:100F4000AA0BBB0B89879A87AB87BC87BC01CD01F5
:100F50000E94A30D69877A878B879C87A7019601DA
:100F60000E94FB0C1816ACF462960FB6F894DEBF24
:100F70000FBECDBFDF91CF91FF90EF90DF90CF906C
:100F8000BF90AF909F908F907F906F905F904F90A9
:100F900008956D817E818F8198850E94720D698789
:100FA0007A878B879C8769817A818B819C810E945B
:100FB000720D6D877E878F87988B41E069858D855F
:100FC0000E942306A501940169817A818B819C810D
:100FD0000E948F0C69837A838B839C83A301920187
:100FE0006D817E818F8198850E948F0C6D837E83B9
:100FF0008F83988789899A8901969A8B898B9CCF50
:101000000F931F93CF93DF93C82F162F042FD22F48
:10101000262F0E940B072D2F402F612F802F0E941B
:101020000B072D2F4C2F6D2F802F0E940B07212F88
:101030004C2F6D2F8C2FDF91CF911F910F910C941E
:101040000B077F928F929F92AF92BF92CF92DF92C7
:10105000EF92FF920F931F93CF93DF93D82EC62E5C
:10106000C42FD0E0F12CE12C10E000E041E0AC2CEA
:10107000A00E6A2DBC2EBD0C8B2D0E94230641E0D4
:101080008C2E8C0C682D9D2C900E892D0E94230691
:1010900041E0682D7D2C701A872D0E94230641E0C7
:1010A0006A2D8D2C8C1A882D0E94230641E0AC2CD1
:1010B000A01A6A2D882D0E94230641E08C2C8C1AE0
:1010C000682D872D0E94230641E0682D892D0E94FE
:1010D000230641E06A2D8B2D0E9423061E141F0457
:1010E0005CF00F5F1F4FC801880F991F0196E80E33
:1010F000F91E1E141F043CF42197CE01880F991F7E
:101100000196E81AF90AC017D1070CF0AFCFDF91AA
:10111000CF911F910F91FF90EF90DF90CF90BF90F4
:10112000AF909F908F907F900895A3E1B0E0EBE99E
:10113000F8E00C94430C7C011B015A01DC0117966A
:101140001C921E92169713968C9181FF50C3FE013C
:1011500031964F01D70113969C91F10193FD859132
:1011600093FF81911F01882309F4F4C2853239F479
:1011700093FD859193FF81911F01853239F4B70169
:1011800090E00E94C70F65015601E4CF10E0712C7A
:10119000612CBFE1B61538F08B3211F190F480323A
:1011A00009F1833229F167FC3CC020ED280F2A3079
:1011B00050F566FE20C0EAE01E9F200D1124122F7C
:1011C00006C08D3291F0803371F7689460F8F101B8
:1011D00093FD859193FF81911F018111DACF21C089
:1011E000689461F8689462F8F2CF689463F8EFCF7E
:1011F000689464F8ECCFFAE07F9E200D1124722EE3
:10120000689465F8E4CF8E3229F466FCA3C2689432
:1012100066F8DDCF8C3619F4689467F8D8CF883635
:10122000B1F29BEB980F933008F065C0689464F8B6
:10123000805E66FE16E0262D2F73622E853609F03D
:1012400062C0689466F867FE68C0812F1C3308F09E
:101250008BE344244394480E27E0D5014D915D91E2
:101260006D917D916D014C875D876E877F87042D21
:10127000A4016C857D858E859F850E94D00E5C01C2
:10128000B981BC87B0FF03C00DE2B3FF0AC00BE217
:1012900061FC07C062FA882780F9082F0295000FC9
:1012A000007EEC85EC705E2E09F454C00111A2C2E0
:1012B000F3E0512CF715A0F483E0572C581A63FC87
:1012C00008C0B70180E290E00E94C70F5A94511005
:1012D000F8CF002329F0B701802F90E00E94C70FBC
:1012E000FC8508E610E0F3FD02C00CE610E0262DB8
:1012F0002071622E21C09BE9980F933008F03AC10B
:10130000E89464F896CF863619F4689467F89BCF12
:10131000112309F498CF115096CF212F183010F0D7
:1013200027E017E0412C99CF61108052B70190E07F
:101330000E94C70F0F5F1F4FF80184918111F4CFF6
:10134000552009F421CFB70180E290E00E94C70F39
:101350005A94F6CF67FE7DC0842D8A0DFC85F4FF7C
:1013600004C09A81913309F481504424439418169F
:1013700034F4482E28E0281710F488E0482E85E041
:1013800090E067FE06C0C501B7FE02C080E090E0B5
:10139000019601110196112331F0212F30E02F5FCA
:1013A0003F4F820F931F7816190619F014F0572C2F
:1013B000581A862D897011F4511070C0002329F03D
:1013C000B701802F90E00E94C70F63FC02C051104C
:1013D0006CC067FE85C03501B7FE02C0712C612C60
:1013E000C50186199709A401480F591F598B488BCD
:1013F000B501641971097B8B6A8B012F10E011957F
:1014000001951109A614B7040CF456C0AA89BB892A
:10141000A615B7050CF050C0E889F9898181F1E083
:101420006F1A7108601671060CF448C0B70190E09D
:101430000E94C70F2FEF6216720629F4B7018EE2E1
:1014400090E00E94C70F888999890196998B888BB3
:10145000D9CF66FC94CFE12FF0E0EA15FB053CF014
:101460003CEFA3163FEFB30614F0689467F832968A
:10147000E80DF91D01C01150112319F0829180333C
:10148000D1F367FE7CCF44244394410E1A151B040C
:1014900019F014F01A1973CF10E071CFB70180E280
:1014A00090E00E94C70F5A9487CFB70180E390E085
:1014B0000E94C70F5A948BCF80E3B1CFA614B70414
:1014C00041F49A81963350F4953319F43C8534FFF6
:1014D00005C0B70190E00E94C70F32CF81E3F9CF7A
:1014E0008A81813319F04C854F7E4C87B70190E09B
:1014F0000E94C70F112399F0B7018EE290E00E947D
:10150000C70F1E5F02E0802F0F5FF401E80FF11D8F
:101510008081B70190E00E94C70F1013F4CF85E6D9
:1015200064FC85E490E0B7010E94C70FB7FC06C0D9
:10153000A114B104C1F45C8554FF15C0B194A19409
:10154000B1088DE2B70190E00E94C70F80E37AE016
:10155000A716B10454F4B70190E00E94C70FB70179
:10156000C501C096B8CF8BE2EDCF8F5F6AE0A61AB7
:10157000B108EDCF8336B1F0833741F1833509F0FF
:101580004DC0D501AD90BD906D01612F70E066FC3E
:1015900002C06FEF7FEFC5010E94B10F8C0168940C
:1015A00067F80CC0650182E0C80ED11CD5018C9192
:1015B000898301E010E05401E89467F863FC04C0FB
:1015C0007016110609F088F4572C24C0F501A1907B
:1015D000B1906F01612F70E066FC02C06FEF7FEF8A
:1015E000C5010E94BC0F8C01E7CFB70180E290E0FB
:1015F0000E94C70F7A94E4CFF50167FC859167FEDE
:1016000081915F01B70190E00E94C70F51105A9479
:10161000015011090115110579F792CE843619F0A0
:10162000893609F070C067FE65C0F501619171915E
:10163000819191916F01B62DBF766B2E97FF09C0F6
:1016400090958095709561957F4F8F4F9F4F6894CF
:1016500067F82AE030E0A4010E941A10A82EA8180A
:10166000BA2C062D66FE0AC00E7FA11638F464FE61
:1016700004C062FC02C0062D0E7EB12E04FF8FC096
:10168000FE01EA0DF11D8081803309F081C0097EE1
:10169000502F5870552E03FD91C000FF8BC01A2D9E
:1016A000B71418F47A0C172D1B1904FF8DC0B7015D
:1016B00080E390E00E94C70F02FF07C088E701FDAA
:1016C00088E590E0B7010E94C70FA11608F488C012
:1016D000AA940A2D10E00F5F1F4F080D191DD801A5
:1016E0008E918D01B70190E00E94C70F0815190572
:1016F000B1F726CED5016D917D916D01072E000CBD
:10170000880B990B98CF062D8537E1F40F7E2AE0E0
:1017100030E007FF35C0D5014D915D916D917D9110
:101720006D014C875D876E877F87A4016C857D8501
:101730008E859F850E941A10A82EA818602EE89406
:1017400067F88ECF097F803791F058F4883589F09B
:101750008F36A1F0F701868197816396E2E10C94C0
:101760005F0C8837B9F704FD046020E1D1CF006138
:10177000FACF64FC066020E132E0CBCF28E0C8CF8E
:10178000F501819191916F01AC0170E060E0C9CFEA
:1017900002FD02C0B3947CCFB394B39479CF802F71
:1017A000867809F475CFF6CFB70180E290E00E9409
:1017B000C70FB394B714C0F3512C77CF572C5B18D5
:1017C000B71408F472CFF8CF802F867809F47DCF54
:1017D0008BE201FF80E207FD8DE2B70190E073CF5D
:1017E000B70180E390E00E94C70F11506ECF8FEFDA
:1017F0009FEFB3CF24E0512C271508F06CCD84E087
:101800005CCD509851980E94C4050E94F0018091CF
:101810000001882321F00E9449020E94F302809176
:101820008D0181110E94E80380918B01882321F0B2
:101830000E9427040E94F30280918C01882339F3CF
:101840000E947805E4CF991B79E004C0991F961790
:1018500008F0961B881F7A95C9F78095089597FB25
:10186000072E16F4009407D077FD09D00E947A0C59
:1018700007FC05D03EF4909581959F4F0895709593
:1018800061957F4F08952F923F924F925F926F9292
:101890007F928F929F92AF92BF92CF92DF92EF9200
:1018A000FF920F931F93CF93DF93CDB7DEB7CA1B81
:1018B000DB0B0FB6F894DEBF0FBECDBF09942A88AC
:1018C000398848885F846E847D848C849B84AA8454
:1018D000B984C884DF80EE80FD800C811B81AA81E1
:1018E000B981CE0FD11D0FB6F894DEBF0FBECDBFAC
:1018F000ED010895AA1BBB1B51E107C0AA1FBB1F26
:10190000A617B70710F0A61BB70B881F991F5A958B
:10191000A9F780959095BC01CD0108955058BB273B
:10192000AA270E94A60C0C94190E0E940B0E38F0E8
:101930000E94120E20F039F49F3F19F426F40C9403
:10194000080E0EF4E095E7FB0C94020EE92F0E94BE
:101950002A0E58F3BA17620773078407950720F019
:1019600079F4A6F50C944C0E0EF4E0950B2EBA2FDC
:10197000A02D0B01B90190010C01CA01A001112495
:10198000FF27591B99F0593F50F4503E68F11A1641
:10199000F040A22F232F342F4427585FF3CF4695D2
:1019A00037952795A795F0405395C9F77EF41F16F4
:1019B000BA0B620B730B840BBAF09150A1F0FF0FBE
:1019C000BB1F661F771F881FC2F70EC0BA0F621FAA
:1019D000731F841F48F4879577956795B795F7959A
:1019E0009E3F08F0B0CF9395880F08F09927EE0F2F
:1019F0009795879508950E94DE0D08F481E008957B
:101A00000E94140D0C94190E0E94120E58F00E94A0
:101A10000B0E40F029F45F3F29F00C94020E511197
:101A20000C944D0E0C94080E0E942A0E68F3992314
:101A3000B1F3552391F3951B550BBB27AA276217CA
:101A40007307840738F09F5F5F4F220F331F441FD7
:101A5000AA1FA9F335D00E2E3AF0E0E832D091500B
:101A60005040E695001CCAF72BD0FE2F29D0660FF8
:101A7000771F881FBB1F261737074807AB07B0E83B
:101A800009F0BB0B802DBF01FF2793585F4F3AF041
:101A90009E3F510578F00C94020E0C944D0E5F3F62
:101AA000E4F3983ED4F3869577956795B795F795C7
:101AB0009F5FC9F7880F911D9695879597F90895AF
:101AC000E1E0660F771F881FBB1F6217730784074B
:101AD000BA0720F0621B730B840BBA0BEE1F88F75A
:101AE000E09508950E94320E88F09F5798F0B92F24
:101AF0009927B751B0F0E1F0660F771F881F991F43
:101B00001AF0BA95C9F714C0B13091F00E944C0E8A
:101B1000B1E008950C944C0E672F782F8827B85F9A
:101B200039F0B93FCCF3869577956795B395D9F79A
:101B30003EF490958095709561957F4F8F4F9F4FA4
:101B40000895E89409C097FB3EF4909580957095B0
:101B500061957F4F8F4F9F4F9923A9F0F92F96E9F9
:101B6000BB279395F695879577956795B795F1116E
:101B7000F8CFFAF4BB0F11F460FF1BC06F5F7F4F0B
:101B80008F4F9F4F16C0882311F096E911C077231D
:101B900021F09EE8872F762F05C0662371F096E826
:101BA000862F70E060E02AF09A95660F771F881FF5
:101BB000DAF7880F9695879597F90895990F000899
:101BC000550FAA0BE0E8FEEF16161706E807F9070F
:101BD000C0F012161306E407F50798F0621B730BAA
:101BE000840B950B39F40A2661F0232B242B252B2B
:101BF00021F408950A2609F4A140A6958FEF811DCE
:101C0000811D089597F99F6780E870E060E008956E
:101C10009FEF80EC089500240A9416161706180604
:101C20000906089500240A941216130614060506E0
:101C30000895092E0394000C11F4882352F0BB0F71
:101C400040F4BF2B11F460FF04C06F5F7F4F8F4FD4
:101C50009F4F089557FD9058440F551F59F05F3F0F
:101C600071F04795880F97FB991F61F09F3F79F0BE
:101C700087950895121613061406551FF2CF469540
:101C8000F1DF08C0161617061806991FF1CF8695C2
:101C90007105610508940895E894BB2766277727A6
:101CA000CB0197F908950E94DE0D08F48FEF089597
:101CB000CF92DF92EF92FF92CF93DF93CDB7DEB753
:101CC0002A970FB6F894DEBF0FBECDBF89879A87DB
:101CD000A985BA852D913D914D915C9129833A83D7
:101CE0004B835C83232B242B252B41F424E239EDF9
:101CF0004BE557E029833A834B835C8369817A8182
:101D00008B819C812DE133EF41E050E00E947810FF
:101D100069017A01A7EAB1E49B01AC010E94971026
:101D200069837A838B839C83ACEEB4EFA701960121
:101D30000E94A5109B01AC0189819A81AB81BC8175
:101D4000820F931FA41FB51FB7FF03C00197A109FE
:101D5000B048E985FA8580839183A283B3839F7716
:101D60002A960FB6F894DEBF0FBECDBFDF91CF919C
:101D7000FF90EF90DF90CF9008950E94580E089545
:101D80008BE091E00E94580E0895B0E0A0E08093AF
:101D90000B0190930C01A0930D01B0930E010895D7
:101DA000283008F027E03327DA01990F311D87FD2D
:101DB000916000966105710539F432602E5F3D93A4
:101DC00030E32A95E1F708959F3F30F080387105A0
:101DD000610509F03C5F3C5F3D93913008F08068FD
:101DE000911DDF93CF931F930F93FF92EF92192FC3
:101DF000987F9695E92F96959695E90FFF27E653DC
:101E0000FF4F99273327EE24FF24A701E701059010
:101E10000894079428F4360FE71EF81E491F511D39
:101E2000660F771F881F991F0694A1F705900794E6
:101E300028F4E70EF81E491F561FC11D770F881F93
:101E4000991F661F0694A1F70590079428F4F80ED1
:101E5000491F561FC71FD11D880F991F661F771F67
:101E60000694A1F70590079420F4490F561FC71F49
:101E7000D81F990F661F771F881F0694A9F78491B2
:101E80001095177041F0D695C79557954795F794DB
:101E9000E7941A95C1F7E0E7F0E068941590159182
:101EA00035916591959105907FE27395E118F10A5E
:101EB000430B560BC90BD009C0F7E10CF11E431FB1
:101EC000561FC91FD01D7EF4703311F48A95E6CFDA
:101ED000E894015030F0080F0AF40027021708F4C4
:101EE000202F2395022F7A3328F079E37D932A95CA
:101EF000E9F710C07D932A9589F606949795679522
:101F0000379517951794E118F10A430B560BC90B37
:101F1000D00998F023957E9173957A3308F070E399
:101F20007C932013B8F77E9170617D9330F0839598
:101F300071E37D9370E32A95E1F71124EF90FF9010
:101F40000F911F91CF91DF91992787FD909508956B
:101F5000FB01DC0102C005900D9241505040D8F7C2
:101F60000895FC010590615070400110D8F78095EC
:101F700090958E0F9F1F0895FC0161507040019055
:101F80000110D8F7809590958E0F9F1F08950F939D
:101F90001F93CF93DF93182F092FEB018B8181FDC6
:101FA00009C01FEF0FEF812F902FDF91CF911F916D
:101FB0000F91089582FF14C02E813F818C819D81F5
:101FC000281739073CF4E881F981CF0101969983FC
:101FD000888310838E819F8101969F838E83E3CFB8
:101FE000E885F985812F0995892BA1F3DACFAEE039
:101FF000B0E0EDEFFFE00C94510C0D891E8986E0F6
:102000008C831A8309838FEF9FE79E838D83AE01B4
:10201000475E5F4F6F89788DCE0101960E949508CB
:102020002F813885020F131FF80110822E96E4E0ED
:102030000C946D0CFA01AA27283051F1203181F15E
:10204000E8946F936E7F6E5F7F4F8F4F9F4FAF4FC0
:10205000B1E03ED0B4E03CD0670F781F891F9A1FD3
:10206000A11D680F791F8A1F911DA11D6A0F711D87
:10207000811D911DA11D20D009F468943F912AE093
:10208000269F11243019305D3193DEF6CF0108957B
:10209000462F4770405D4193B3E00FD0C9F7F6CFAC
:1020A000462F4F70405D4A3318F0495D31FD405274
:1020B000419302D0A9F7EACFB4E0A695979587950A
:1020C00077956795BA95C9F70097610571050895E9
:1020D0009B01AC010A2E0694579547953795279595
:1020E000BA95C9F7620F731F841F951FA01D08952D
:1020F000052E97FB1EF400940E948F1057FD07D009
:102100000E94AA1007FC03D04EF40C948F10509537
:102110004095309521953F4F4F4F5F4F08959095D3
:102120008095709561957F4F8F4F9F4F08950E94C6
:10213000CC10A59F900DB49F900DA49F800D911D74
:1021400011240895B7FF0C9497100E949710821BDA
:10215000930B0895A1E21A2EAA1BBB1BFD010DC013
:10216000AA1FBB1FEE1FFF1FA217B307E407F50747
:1021700020F0A21BB30BE40BF50B661F771F881F23
:10218000991F1A9469F760957095809590959B01B9
:10219000AC01BD01CF010895A29FB001B39FC00162
:1021A000A39F700D811D1124911DB29F700D811D83
:0A21B0001124911D0895F894FFCF4B
:1021BA000101000200050005002A00010000004696
:1021CA00616C6C696E2700526567726173004665BF
:1021DA0063686172002A004F6272696761646120F4
:1021EA00706F72206A6F6761722100312E566F63B9
:1021FA006520736F2074656D20756D612076696442
:10220A00612E00322E4375696461646F20636F6DBD
:10221A00206F7320657370696E686F732E004D4569
:10222A004E550047616D65204F76657200526563B1
:0A223A006F7264653A20256400000D
:00000001FF
